{
  "address": "0x991E753Dd5d9d1930d3cb743d66C2a0fe323ED6d",
  "abi": [
    {
      "inputs": [
        {
          "internalType": "address",
          "name": "vrfCoordinatorV2",
          "type": "address"
        },
        {
          "internalType": "uint256",
          "name": "subscriptionId",
          "type": "uint256"
        },
        {
          "internalType": "bytes32",
          "name": "gasLane",
          "type": "bytes32"
        },
        {
          "internalType": "uint32",
          "name": "callbackGasLimit",
          "type": "uint32"
        },
        {
          "internalType": "string[3]",
          "name": "dogTokenUris",
          "type": "string[3]"
        },
        {
          "internalType": "uint256",
          "name": "mintFee",
          "type": "uint256"
        }
      ],
      "stateMutability": "nonpayable",
      "type": "constructor"
    },
    {
      "inputs": [
        {
          "internalType": "address",
          "name": "sender",
          "type": "address"
        },
        {
          "internalType": "uint256",
          "name": "tokenId",
          "type": "uint256"
        },
        {
          "internalType": "address",
          "name": "owner",
          "type": "address"
        }
      ],
      "name": "ERC721IncorrectOwner",
      "type": "error"
    },
    {
      "inputs": [
        {
          "internalType": "address",
          "name": "operator",
          "type": "address"
        },
        {
          "internalType": "uint256",
          "name": "tokenId",
          "type": "uint256"
        }
      ],
      "name": "ERC721InsufficientApproval",
      "type": "error"
    },
    {
      "inputs": [
        {
          "internalType": "address",
          "name": "approver",
          "type": "address"
        }
      ],
      "name": "ERC721InvalidApprover",
      "type": "error"
    },
    {
      "inputs": [
        {
          "internalType": "address",
          "name": "operator",
          "type": "address"
        }
      ],
      "name": "ERC721InvalidOperator",
      "type": "error"
    },
    {
      "inputs": [
        {
          "internalType": "address",
          "name": "owner",
          "type": "address"
        }
      ],
      "name": "ERC721InvalidOwner",
      "type": "error"
    },
    {
      "inputs": [
        {
          "internalType": "address",
          "name": "receiver",
          "type": "address"
        }
      ],
      "name": "ERC721InvalidReceiver",
      "type": "error"
    },
    {
      "inputs": [
        {
          "internalType": "address",
          "name": "sender",
          "type": "address"
        }
      ],
      "name": "ERC721InvalidSender",
      "type": "error"
    },
    {
      "inputs": [
        {
          "internalType": "uint256",
          "name": "tokenId",
          "type": "uint256"
        }
      ],
      "name": "ERC721NonexistentToken",
      "type": "error"
    },
    {
      "inputs": [
        {
          "internalType": "address",
          "name": "have",
          "type": "address"
        },
        {
          "internalType": "address",
          "name": "want",
          "type": "address"
        }
      ],
      "name": "OnlyCoordinatorCanFulfill",
      "type": "error"
    },
    {
      "inputs": [
        {
          "internalType": "address",
          "name": "have",
          "type": "address"
        },
        {
          "internalType": "address",
          "name": "owner",
          "type": "address"
        },
        {
          "internalType": "address",
          "name": "coordinator",
          "type": "address"
        }
      ],
      "name": "OnlyOwnerOrCoordinator",
      "type": "error"
    },
    {
      "inputs": [],
      "name": "RandomIpfsNft__AlreadyInitialized",
      "type": "error"
    },
    {
      "inputs": [],
      "name": "RandomIpfsNft__NeedMoreETHSent",
      "type": "error"
    },
    {
      "inputs": [],
      "name": "RandomIpfsNft__RangeOutOfBounds",
      "type": "error"
    },
    {
      "inputs": [],
      "name": "RandomIpfsNft__TransferFailed",
      "type": "error"
    },
    {
      "inputs": [],
      "name": "ZeroAddress",
      "type": "error"
    },
    {
      "anonymous": false,
      "inputs": [
        {
          "indexed": true,
          "internalType": "address",
          "name": "owner",
          "type": "address"
        },
        {
          "indexed": true,
          "internalType": "address",
          "name": "approved",
          "type": "address"
        },
        {
          "indexed": true,
          "internalType": "uint256",
          "name": "tokenId",
          "type": "uint256"
        }
      ],
      "name": "Approval",
      "type": "event"
    },
    {
      "anonymous": false,
      "inputs": [
        {
          "indexed": true,
          "internalType": "address",
          "name": "owner",
          "type": "address"
        },
        {
          "indexed": true,
          "internalType": "address",
          "name": "operator",
          "type": "address"
        },
        {
          "indexed": false,
          "internalType": "bool",
          "name": "approved",
          "type": "bool"
        }
      ],
      "name": "ApprovalForAll",
      "type": "event"
    },
    {
      "anonymous": false,
      "inputs": [
        {
          "indexed": false,
          "internalType": "uint256",
          "name": "_fromTokenId",
          "type": "uint256"
        },
        {
          "indexed": false,
          "internalType": "uint256",
          "name": "_toTokenId",
          "type": "uint256"
        }
      ],
      "name": "BatchMetadataUpdate",
      "type": "event"
    },
    {
      "anonymous": false,
      "inputs": [
        {
          "indexed": false,
          "internalType": "address",
          "name": "vrfCoordinator",
          "type": "address"
        }
      ],
      "name": "CoordinatorSet",
      "type": "event"
    },
    {
      "anonymous": false,
      "inputs": [
        {
          "indexed": false,
          "internalType": "uint256",
          "name": "_tokenId",
          "type": "uint256"
        }
      ],
      "name": "MetadataUpdate",
      "type": "event"
    },
    {
      "anonymous": false,
      "inputs": [
        {
          "indexed": true,
          "internalType": "uint256",
          "name": "tokenId",
          "type": "uint256"
        },
        {
          "indexed": true,
          "internalType": "enum RandomIpfsNft.Breed",
          "name": "breed",
          "type": "uint8"
        },
        {
          "indexed": true,
          "internalType": "address",
          "name": "minter",
          "type": "address"
        }
      ],
      "name": "NftMinted",
      "type": "event"
    },
    {
      "anonymous": false,
      "inputs": [
        {
          "indexed": true,
          "internalType": "uint256",
          "name": "requestId",
          "type": "uint256"
        },
        {
          "indexed": true,
          "internalType": "address",
          "name": "requester",
          "type": "address"
        }
      ],
      "name": "NftRequested",
      "type": "event"
    },
    {
      "anonymous": false,
      "inputs": [
        {
          "indexed": true,
          "internalType": "address",
          "name": "from",
          "type": "address"
        },
        {
          "indexed": true,
          "internalType": "address",
          "name": "to",
          "type": "address"
        }
      ],
      "name": "OwnershipTransferRequested",
      "type": "event"
    },
    {
      "anonymous": false,
      "inputs": [
        {
          "indexed": true,
          "internalType": "address",
          "name": "from",
          "type": "address"
        },
        {
          "indexed": true,
          "internalType": "address",
          "name": "to",
          "type": "address"
        }
      ],
      "name": "OwnershipTransferred",
      "type": "event"
    },
    {
      "anonymous": false,
      "inputs": [
        {
          "indexed": true,
          "internalType": "address",
          "name": "from",
          "type": "address"
        },
        {
          "indexed": true,
          "internalType": "address",
          "name": "to",
          "type": "address"
        },
        {
          "indexed": true,
          "internalType": "uint256",
          "name": "tokenId",
          "type": "uint256"
        }
      ],
      "name": "Transfer",
      "type": "event"
    },
    {
      "inputs": [],
      "name": "acceptOwnership",
      "outputs": [],
      "stateMutability": "nonpayable",
      "type": "function"
    },
    {
      "inputs": [
        {
          "internalType": "address",
          "name": "to",
          "type": "address"
        },
        {
          "internalType": "uint256",
          "name": "tokenId",
          "type": "uint256"
        }
      ],
      "name": "approve",
      "outputs": [],
      "stateMutability": "nonpayable",
      "type": "function"
    },
    {
      "inputs": [
        {
          "internalType": "address",
          "name": "owner",
          "type": "address"
        }
      ],
      "name": "balanceOf",
      "outputs": [
        {
          "internalType": "uint256",
          "name": "",
          "type": "uint256"
        }
      ],
      "stateMutability": "view",
      "type": "function"
    },
    {
      "inputs": [
        {
          "internalType": "uint256",
          "name": "tokenId",
          "type": "uint256"
        }
      ],
      "name": "getApproved",
      "outputs": [
        {
          "internalType": "address",
          "name": "",
          "type": "address"
        }
      ],
      "stateMutability": "view",
      "type": "function"
    },
    {
      "inputs": [
        {
          "internalType": "uint256",
          "name": "moddedRng",
          "type": "uint256"
        }
      ],
      "name": "getBreedFromModdedRng",
      "outputs": [
        {
          "internalType": "enum RandomIpfsNft.Breed",
          "name": "",
          "type": "uint8"
        }
      ],
      "stateMutability": "pure",
      "type": "function"
    },
    {
      "inputs": [],
      "name": "getChanceArray",
      "outputs": [
        {
          "internalType": "uint256[3]",
          "name": "",
          "type": "uint256[3]"
        }
      ],
      "stateMutability": "pure",
      "type": "function"
    },
    {
      "inputs": [
        {
          "internalType": "uint256",
          "name": "index",
          "type": "uint256"
        }
      ],
      "name": "getDogTokenUris",
      "outputs": [
        {
          "internalType": "string",
          "name": "",
          "type": "string"
        }
      ],
      "stateMutability": "view",
      "type": "function"
    },
    {
      "inputs": [],
      "name": "getInitialized",
      "outputs": [
        {
          "internalType": "bool",
          "name": "",
          "type": "bool"
        }
      ],
      "stateMutability": "view",
      "type": "function"
    },
    {
      "inputs": [],
      "name": "getMintFee",
      "outputs": [
        {
          "internalType": "uint256",
          "name": "",
          "type": "uint256"
        }
      ],
      "stateMutability": "view",
      "type": "function"
    },
    {
      "inputs": [],
      "name": "getSubscriptionId",
      "outputs": [
        {
          "internalType": "uint256",
          "name": "",
          "type": "uint256"
        }
      ],
      "stateMutability": "view",
      "type": "function"
    },
    {
      "inputs": [],
      "name": "getTokenCounter",
      "outputs": [
        {
          "internalType": "uint256",
          "name": "",
          "type": "uint256"
        }
      ],
      "stateMutability": "view",
      "type": "function"
    },
    {
      "inputs": [
        {
          "internalType": "address",
          "name": "owner",
          "type": "address"
        },
        {
          "internalType": "address",
          "name": "operator",
          "type": "address"
        }
      ],
      "name": "isApprovedForAll",
      "outputs": [
        {
          "internalType": "bool",
          "name": "",
          "type": "bool"
        }
      ],
      "stateMutability": "view",
      "type": "function"
    },
    {
      "inputs": [],
      "name": "name",
      "outputs": [
        {
          "internalType": "string",
          "name": "",
          "type": "string"
        }
      ],
      "stateMutability": "view",
      "type": "function"
    },
    {
      "inputs": [],
      "name": "owner",
      "outputs": [
        {
          "internalType": "address",
          "name": "",
          "type": "address"
        }
      ],
      "stateMutability": "view",
      "type": "function"
    },
    {
      "inputs": [
        {
          "internalType": "uint256",
          "name": "tokenId",
          "type": "uint256"
        }
      ],
      "name": "ownerOf",
      "outputs": [
        {
          "internalType": "address",
          "name": "",
          "type": "address"
        }
      ],
      "stateMutability": "view",
      "type": "function"
    },
    {
      "inputs": [
        {
          "internalType": "uint256",
          "name": "requestId",
          "type": "uint256"
        },
        {
          "internalType": "uint256[]",
          "name": "randomWords",
          "type": "uint256[]"
        }
      ],
      "name": "rawFulfillRandomWords",
      "outputs": [],
      "stateMutability": "nonpayable",
      "type": "function"
    },
    {
      "inputs": [],
      "name": "requestNft",
      "outputs": [
        {
          "internalType": "uint256",
          "name": "requestId",
          "type": "uint256"
        }
      ],
      "stateMutability": "payable",
      "type": "function"
    },
    {
      "inputs": [
        {
          "internalType": "uint256",
          "name": "",
          "type": "uint256"
        }
      ],
      "name": "s_requestIdToSender",
      "outputs": [
        {
          "internalType": "address",
          "name": "",
          "type": "address"
        }
      ],
      "stateMutability": "view",
      "type": "function"
    },
    {
      "inputs": [],
      "name": "s_tokenCounter",
      "outputs": [
        {
          "internalType": "uint256",
          "name": "",
          "type": "uint256"
        }
      ],
      "stateMutability": "view",
      "type": "function"
    },
    {
      "inputs": [],
      "name": "s_vrfCoordinator",
      "outputs": [
        {
          "internalType": "contract IVRFCoordinatorV2Plus",
          "name": "",
          "type": "address"
        }
      ],
      "stateMutability": "view",
      "type": "function"
    },
    {
      "inputs": [
        {
          "internalType": "address",
          "name": "from",
          "type": "address"
        },
        {
          "internalType": "address",
          "name": "to",
          "type": "address"
        },
        {
          "internalType": "uint256",
          "name": "tokenId",
          "type": "uint256"
        }
      ],
      "name": "safeTransferFrom",
      "outputs": [],
      "stateMutability": "nonpayable",
      "type": "function"
    },
    {
      "inputs": [
        {
          "internalType": "address",
          "name": "from",
          "type": "address"
        },
        {
          "internalType": "address",
          "name": "to",
          "type": "address"
        },
        {
          "internalType": "uint256",
          "name": "tokenId",
          "type": "uint256"
        },
        {
          "internalType": "bytes",
          "name": "data",
          "type": "bytes"
        }
      ],
      "name": "safeTransferFrom",
      "outputs": [],
      "stateMutability": "nonpayable",
      "type": "function"
    },
    {
      "inputs": [
        {
          "internalType": "address",
          "name": "operator",
          "type": "address"
        },
        {
          "internalType": "bool",
          "name": "approved",
          "type": "bool"
        }
      ],
      "name": "setApprovalForAll",
      "outputs": [],
      "stateMutability": "nonpayable",
      "type": "function"
    },
    {
      "inputs": [
        {
          "internalType": "address",
          "name": "_vrfCoordinator",
          "type": "address"
        }
      ],
      "name": "setCoordinator",
      "outputs": [],
      "stateMutability": "nonpayable",
      "type": "function"
    },
    {
      "inputs": [
        {
          "internalType": "bytes4",
          "name": "interfaceId",
          "type": "bytes4"
        }
      ],
      "name": "supportsInterface",
      "outputs": [
        {
          "internalType": "bool",
          "name": "",
          "type": "bool"
        }
      ],
      "stateMutability": "view",
      "type": "function"
    },
    {
      "inputs": [],
      "name": "symbol",
      "outputs": [
        {
          "internalType": "string",
          "name": "",
          "type": "string"
        }
      ],
      "stateMutability": "view",
      "type": "function"
    },
    {
      "inputs": [
        {
          "internalType": "uint256",
          "name": "tokenId",
          "type": "uint256"
        }
      ],
      "name": "tokenURI",
      "outputs": [
        {
          "internalType": "string",
          "name": "",
          "type": "string"
        }
      ],
      "stateMutability": "view",
      "type": "function"
    },
    {
      "inputs": [
        {
          "internalType": "address",
          "name": "from",
          "type": "address"
        },
        {
          "internalType": "address",
          "name": "to",
          "type": "address"
        },
        {
          "internalType": "uint256",
          "name": "tokenId",
          "type": "uint256"
        }
      ],
      "name": "transferFrom",
      "outputs": [],
      "stateMutability": "nonpayable",
      "type": "function"
    },
    {
      "inputs": [
        {
          "internalType": "address",
          "name": "to",
          "type": "address"
        }
      ],
      "name": "transferOwnership",
      "outputs": [],
      "stateMutability": "nonpayable",
      "type": "function"
    },
    {
      "inputs": [],
      "name": "withdraw",
      "outputs": [],
      "stateMutability": "nonpayable",
      "type": "function"
    }
  ],
  "transactionHash": "0x3751d022a870253fd65b219facb57733bf3a1e6e6674601f375079dad3eb0b5c",
  "args": [
    "0x8103B0A8A00be2DDC778e6e7eaa21791Cd364625",
    "48146606123389034119269388057707902110479942126811981665332213894828502259205",
    "0x787d74caea10b2b357790d5b5247c2f63d1d91572a9846f780606e4d953677ae",
    "500000",
    [
      "ipfs://QmP8RdJU7RoKSH88F5Ei6GEf7R5KWUA1V11zLYmPGwrJdL",
      "ipfs://QmUDWCX8AYbmPLYQkBFjankK1qJSgpsHZK9cxV6fVHoJqD",
      "ipfs://QmWjs1LXwCsVt8ZechZsWga5SpG1i8i96CDG1cbrhYZBj6"
    ],
    "10000000000000"
  ],
  "numDeployments": 1,
  "solcInputHash": "6d8fc9ec67dd759e367a9a26b005abf1",
  "bytecode": "0x6101006040523480156200001257600080fd5b50604051620049f5380380620049f5833981810160405281019062000038919062000926565b6040518060400160405280600f81526020017f52616e646f6d2049504653204e465400000000000000000000000000000000008152506040518060400160405280600681526020017f5249504e4654000000000000000000000000000000000000000000000000000081525087338060008073ffffffffffffffffffffffffffffffffffffffff168273ffffffffffffffffffffffffffffffffffffffff16036200011a576040517f08c379a0000000000000000000000000000000000000000000000000000000008152600401620001119062000a42565b60405180910390fd5b816000806101000a81548173ffffffffffffffffffffffffffffffffffffffff021916908373ffffffffffffffffffffffffffffffffffffffff160217905550600073ffffffffffffffffffffffffffffffffffffffff168173ffffffffffffffffffffffffffffffffffffffff1614620001a157620001a081620002f760201b60201c565b5b505050600073ffffffffffffffffffffffffffffffffffffffff168173ffffffffffffffffffffffffffffffffffffffff16036200020b576040517fd92e233d00000000000000000000000000000000000000000000000000000000815260040160405180910390fd5b80600260006101000a81548173ffffffffffffffffffffffffffffffffffffffff021916908373ffffffffffffffffffffffffffffffffffffffff1602179055505081600390816200025e919062000ca5565b50806004908162000270919062000ca5565b5050508573ffffffffffffffffffffffffffffffffffffffff1660808173ffffffffffffffffffffffffffffffffffffffff16815250508460a081815250508360c081815250508263ffffffff1660e08163ffffffff1681525050620002dc826200042660201b60201c565b80600d819055506000600b8190555050505050505062000dfe565b3373ffffffffffffffffffffffffffffffffffffffff168173ffffffffffffffffffffffffffffffffffffffff160362000368576040517f08c379a00000000000000000000000000000000000000000000000000000000081526004016200035f9062000ddc565b60405180910390fd5b80600160006101000a81548173ffffffffffffffffffffffffffffffffffffffff021916908373ffffffffffffffffffffffffffffffffffffffff1602179055508073ffffffffffffffffffffffffffffffffffffffff1660008054906101000a900473ffffffffffffffffffffffffffffffffffffffff1673ffffffffffffffffffffffffffffffffffffffff167fed8889f560326eb138920d842192f0eb3dd22b4f139c87a2c57538e05bae127860405160405180910390a350565b600e60009054906101000a900460ff16156200046e576040517fddf8bf7000000000000000000000000000000000000000000000000000000000815260040160405180910390fd5b80600c90600362000481929190620004a0565b506001600e60006101000a81548160ff02191690831515021790555050565b828054828255906000526020600020908101928215620004ed579160200282015b82811115620004ec578251829081620004db919062000ca5565b5091602001919060010190620004c1565b5b509050620004fc919062000500565b5090565b5b808211156200052457600081816200051a919062000528565b5060010162000501565b5090565b508054620005369062000a9e565b6000825580601f106200054a57506200056b565b601f0160209004906000526020600020908101906200056a91906200056e565b5b50565b5b80821115620005895760008160009055506001016200056f565b5090565b6000604051905090565b600080fd5b600080fd5b600073ffffffffffffffffffffffffffffffffffffffff82169050919050565b6000620005ce82620005a1565b9050919050565b620005e081620005c1565b8114620005ec57600080fd5b50565b6000815190506200060081620005d5565b92915050565b6000819050919050565b6200061b8162000606565b81146200062757600080fd5b50565b6000815190506200063b8162000610565b92915050565b6000819050919050565b620006568162000641565b81146200066257600080fd5b50565b60008151905062000676816200064b565b92915050565b600063ffffffff82169050919050565b62000697816200067c565b8114620006a357600080fd5b50565b600081519050620006b7816200068c565b92915050565b600080fd5b6000601f19601f8301169050919050565b7f4e487b7100000000000000000000000000000000000000000000000000000000600052604160045260246000fd5b6200070d82620006c2565b810181811067ffffffffffffffff821117156200072f576200072e620006d3565b5b80604052505050565b6000620007446200058d565b905062000752828262000702565b919050565b600067ffffffffffffffff821115620007755762000774620006d3565b5b602082029050919050565b600080fd5b600080fd5b600067ffffffffffffffff821115620007a857620007a7620006d3565b5b620007b382620006c2565b9050602081019050919050565b60005b83811015620007e0578082015181840152602081019050620007c3565b60008484015250505050565b600062000803620007fd846200078a565b62000738565b90508281526020810184848401111562000822576200082162000785565b5b6200082f848285620007c0565b509392505050565b600082601f8301126200084f576200084e620006bd565b5b815162000861848260208601620007ec565b91505092915050565b6000620008816200087b8462000757565b62000738565b905080602084028301858111156200089e576200089d62000780565b5b835b81811015620008ec57805167ffffffffffffffff811115620008c757620008c6620006bd565b5b808601620008d6898262000837565b85526020850194505050602081019050620008a0565b5050509392505050565b600082601f8301126200090e576200090d620006bd565b5b60036200091d8482856200086a565b91505092915050565b60008060008060008060c0878903121562000946576200094562000597565b5b60006200095689828a01620005ef565b96505060206200096989828a016200062a565b95505060406200097c89828a0162000665565b94505060606200098f89828a01620006a6565b935050608087015167ffffffffffffffff811115620009b357620009b26200059c565b5b620009c189828a01620008f6565b92505060a0620009d489828a016200062a565b9150509295509295509295565b600082825260208201905092915050565b7f43616e6e6f7420736574206f776e657220746f207a65726f0000000000000000600082015250565b600062000a2a601883620009e1565b915062000a3782620009f2565b602082019050919050565b6000602082019050818103600083015262000a5d8162000a1b565b9050919050565b600081519050919050565b7f4e487b7100000000000000000000000000000000000000000000000000000000600052602260045260246000fd5b6000600282049050600182168062000ab757607f821691505b60208210810362000acd5762000acc62000a6f565b5b50919050565b60008190508160005260206000209050919050565b60006020601f8301049050919050565b600082821b905092915050565b60006008830262000b377fffffffffffffffffffffffffffffffffffffffffffffffffffffffffffffffff8262000af8565b62000b43868362000af8565b95508019841693508086168417925050509392505050565b6000819050919050565b600062000b8662000b8062000b7a8462000606565b62000b5b565b62000606565b9050919050565b6000819050919050565b62000ba28362000b65565b62000bba62000bb18262000b8d565b84845462000b05565b825550505050565b600090565b62000bd162000bc2565b62000bde81848462000b97565b505050565b5b8181101562000c065762000bfa60008262000bc7565b60018101905062000be4565b5050565b601f82111562000c555762000c1f8162000ad3565b62000c2a8462000ae8565b8101602085101562000c3a578190505b62000c5262000c498562000ae8565b83018262000be3565b50505b505050565b600082821c905092915050565b600062000c7a6000198460080262000c5a565b1980831691505092915050565b600062000c95838362000c67565b9150826002028217905092915050565b62000cb08262000a64565b67ffffffffffffffff81111562000ccc5762000ccb620006d3565b5b62000cd8825462000a9e565b62000ce582828562000c0a565b600060209050601f83116001811462000d1d576000841562000d08578287015190505b62000d14858262000c87565b86555062000d84565b601f19841662000d2d8662000ad3565b60005b8281101562000d575784890151825560018201915060208501945060208101905062000d30565b8683101562000d77578489015162000d73601f89168262000c67565b8355505b6001600288020188555050505b505050505050565b7f43616e6e6f74207472616e7366657220746f2073656c66000000000000000000600082015250565b600062000dc4601783620009e1565b915062000dd18262000d8c565b602082019050919050565b6000602082019050818103600083015262000df78162000db5565b9050919050565b60805160a05160c05160e051613bb662000e3f6000396000611321015260006112ca0152600081816112f001526115a3015260006112830152613bb66000f3fe6080604052600436106101cd5760003560e01c80637a5caab3116100f7578063a51cccf311610095578063de3d9fb711610064578063de3d9fb71461067d578063e985e9c5146106a8578063ee89dab4146106e5578063f2fde38b14610710576101cd565b8063a51cccf3146105bc578063aa152491146105f9578063b88d4fde14610617578063c87b56dd14610640576101cd565b806395d89b41116100d157806395d89b41146105005780639eccacf61461052b578063a22cb46514610556578063a36f573b1461057f576101cd565b80637a5caab3146104815780638da5cb5b146104ac5780638ea98117146104d7576101cd565b80633af259751161016f5780636352211e1161013e5780636352211e146103c55780636e02007d1461040257806370a082311461042d57806379ba50971461046a576101cd565b80633af259751461031d5780633ccfd60b1461035a57806342842e0e146103715780635dacf5f41461039a576101cd565b8063095ea7b3116101ab578063095ea7b3146102775780630b21a83b146102a05780631fe543e3146102cb57806323b872dd146102f4576101cd565b806301ffc9a7146101d257806306fdde031461020f578063081812fc1461023a575b600080fd5b3480156101de57600080fd5b506101f960048036038101906101f49190612a47565b610739565b6040516102069190612a8f565b60405180910390f35b34801561021b57600080fd5b5061022461079a565b6040516102319190612b3a565b60405180910390f35b34801561024657600080fd5b50610261600480360381019061025c9190612b92565b61082c565b60405161026e9190612c00565b60405180910390f35b34801561028357600080fd5b5061029e60048036038101906102999190612c47565b610848565b005b3480156102ac57600080fd5b506102b561085e565b6040516102c29190612c96565b60405180910390f35b3480156102d757600080fd5b506102f260048036038101906102ed9190612d16565b610864565b005b34801561030057600080fd5b5061031b60048036038101906103169190612d76565b61092a565b005b34801561032957600080fd5b50610344600480360381019061033f9190612b92565b610a2c565b6040516103519190612b3a565b60405180910390f35b34801561036657600080fd5b5061036f610adc565b005b34801561037d57600080fd5b5061039860048036038101906103939190612d76565b610b90565b005b3480156103a657600080fd5b506103af610bb0565b6040516103bc9190612e74565b60405180910390f35b3480156103d157600080fd5b506103ec60048036038101906103e79190612b92565b610be7565b6040516103f99190612c00565b60405180910390f35b34801561040e57600080fd5b50610417610bf9565b6040516104249190612c96565b60405180910390f35b34801561043957600080fd5b50610454600480360381019061044f9190612e8f565b610c03565b6040516104619190612c96565b60405180910390f35b34801561047657600080fd5b5061047f610cbd565b005b34801561048d57600080fd5b50610496610e52565b6040516104a39190612c96565b60405180910390f35b3480156104b857600080fd5b506104c1610e5c565b6040516104ce9190612c00565b60405180910390f35b3480156104e357600080fd5b506104fe60048036038101906104f99190612e8f565b610e85565b005b34801561050c57600080fd5b50610515611066565b6040516105229190612b3a565b60405180910390f35b34801561053757600080fd5b506105406110f8565b60405161054d9190612f1b565b60405180910390f35b34801561056257600080fd5b5061057d60048036038101906105789190612f62565b61111e565b005b34801561058b57600080fd5b506105a660048036038101906105a19190612b92565b611134565b6040516105b39190612c00565b60405180910390f35b3480156105c857600080fd5b506105e360048036038101906105de9190612b92565b611167565b6040516105f09190613019565b60405180910390f35b610601611243565b60405161060e9190612c96565b60405180910390f35b34801561062357600080fd5b5061063e60048036038101906106399190613164565b61146f565b005b34801561064c57600080fd5b5061066760048036038101906106629190612b92565b61148c565b6040516106749190612b3a565b60405180910390f35b34801561068957600080fd5b5061069261159f565b60405161069f9190612c96565b60405180910390f35b3480156106b457600080fd5b506106cf60048036038101906106ca91906131e7565b6115c7565b6040516106dc9190612a8f565b60405180910390f35b3480156106f157600080fd5b506106fa61165b565b6040516107079190612a8f565b60405180910390f35b34801561071c57600080fd5b5061073760048036038101906107329190612e8f565b611672565b005b6000634906490660e01b7bffffffffffffffffffffffffffffffffffffffffffffffffffffffff1916827bffffffffffffffffffffffffffffffffffffffffffffffffffffffff19161480610793575061079282611686565b5b9050919050565b6060600380546107a990613256565b80601f01602080910402602001604051908101604052809291908181526020018280546107d590613256565b80156108225780601f106107f757610100808354040283529160200191610822565b820191906000526020600020905b81548152906001019060200180831161080557829003601f168201915b5050505050905090565b600061083782611768565b50610841826117f0565b9050919050565b61085a828261085561182d565b611835565b5050565b600b5481565b600260009054906101000a900473ffffffffffffffffffffffffffffffffffffffff1673ffffffffffffffffffffffffffffffffffffffff163373ffffffffffffffffffffffffffffffffffffffff161461091a5733600260009054906101000a900473ffffffffffffffffffffffffffffffffffffffff166040517f1cf993f4000000000000000000000000000000000000000000000000000000008152600401610911929190613287565b60405180910390fd5b610925838383611847565b505050565b600073ffffffffffffffffffffffffffffffffffffffff168273ffffffffffffffffffffffffffffffffffffffff160361099c5760006040517f64a0ae920000000000000000000000000000000000000000000000000000000081526004016109939190612c00565b60405180910390fd5b60006109b083836109ab61182d565b611a04565b90508373ffffffffffffffffffffffffffffffffffffffff168173ffffffffffffffffffffffffffffffffffffffff1614610a26578382826040517f64283d7b000000000000000000000000000000000000000000000000000000008152600401610a1d939291906132b0565b60405180910390fd5b50505050565b6060600c8281548110610a4257610a416132e7565b5b906000526020600020018054610a5790613256565b80601f0160208091040260200160405190810160405280929190818152602001828054610a8390613256565b8015610ad05780601f10610aa557610100808354040283529160200191610ad0565b820191906000526020600020905b815481529060010190602001808311610ab357829003601f168201915b50505050509050919050565b610ae4611c1e565b600047905060003373ffffffffffffffffffffffffffffffffffffffff1682604051610b0f90613347565b60006040518083038185875af1925050503d8060008114610b4c576040519150601f19603f3d011682016040523d82523d6000602084013e610b51565b606091505b5050905080610b8c576040517fca7e25b700000000000000000000000000000000000000000000000000000000815260040160405180910390fd5b5050565b610bab8383836040518060200160405280600081525061146f565b505050565b610bb86129b9565b6040518060600160405280600a8152602001601e8152602001600a6064610bdf919061338b565b815250905090565b6000610bf282611768565b9050919050565b6000600b54905090565b60008073ffffffffffffffffffffffffffffffffffffffff168273ffffffffffffffffffffffffffffffffffffffff1603610c765760006040517f89c62b64000000000000000000000000000000000000000000000000000000008152600401610c6d9190612c00565b60405180910390fd5b600660008373ffffffffffffffffffffffffffffffffffffffff1673ffffffffffffffffffffffffffffffffffffffff168152602001908152602001600020549050919050565b600160009054906101000a900473ffffffffffffffffffffffffffffffffffffffff1673ffffffffffffffffffffffffffffffffffffffff163373ffffffffffffffffffffffffffffffffffffffff1614610d4d576040517f08c379a0000000000000000000000000000000000000000000000000000000008152600401610d449061340b565b60405180910390fd5b60008060009054906101000a900473ffffffffffffffffffffffffffffffffffffffff169050336000806101000a81548173ffffffffffffffffffffffffffffffffffffffff021916908373ffffffffffffffffffffffffffffffffffffffff1602179055506000600160006101000a81548173ffffffffffffffffffffffffffffffffffffffff021916908373ffffffffffffffffffffffffffffffffffffffff1602179055503373ffffffffffffffffffffffffffffffffffffffff168173ffffffffffffffffffffffffffffffffffffffff167f8be0079c531659141344cd1fd0a4f28419497f9722a3daafe3b4186f6b6457e060405160405180910390a350565b6000600d54905090565b60008060009054906101000a900473ffffffffffffffffffffffffffffffffffffffff16905090565b610e8d610e5c565b73ffffffffffffffffffffffffffffffffffffffff163373ffffffffffffffffffffffffffffffffffffffff1614158015610f165750600260009054906101000a900473ffffffffffffffffffffffffffffffffffffffff1673ffffffffffffffffffffffffffffffffffffffff163373ffffffffffffffffffffffffffffffffffffffff1614155b15610f855733610f24610e5c565b600260009054906101000a900473ffffffffffffffffffffffffffffffffffffffff166040517f061db9c1000000000000000000000000000000000000000000000000000000008152600401610f7c9392919061342b565b60405180910390fd5b600073ffffffffffffffffffffffffffffffffffffffff168173ffffffffffffffffffffffffffffffffffffffff1603610feb576040517fd92e233d00000000000000000000000000000000000000000000000000000000815260040160405180910390fd5b80600260006101000a81548173ffffffffffffffffffffffffffffffffffffffff021916908373ffffffffffffffffffffffffffffffffffffffff1602179055507fd1a6a14209a385a964d036e404cb5cfb71f4000cdb03c9366292430787261be68160405161105b9190612c00565b60405180910390a150565b60606004805461107590613256565b80601f01602080910402602001604051908101604052809291908181526020018280546110a190613256565b80156110ee5780601f106110c3576101008083540402835291602001916110ee565b820191906000526020600020905b8154815290600101906020018083116110d157829003601f168201915b5050505050905090565b600260009054906101000a900473ffffffffffffffffffffffffffffffffffffffff1681565b61113061112961182d565b8383611cae565b5050565b600a6020528060005260406000206000915054906101000a900473ffffffffffffffffffffffffffffffffffffffff1681565b600080600090506000611178610bb0565b905060005b600381101561120b578285101580156111b757508181600381106111a4576111a36132e7565b5b6020020151836111b49190613462565b85105b156111d9578060028111156111cf576111ce612fa2565b5b935050505061123e565b8181600381106111ec576111eb6132e7565b5b6020020151836111fc9190613462565b9250808060010191505061117d565b506040517f12806c9d00000000000000000000000000000000000000000000000000000000815260040160405180910390fd5b919050565b6000600d54341015611281576040517fb90f491000000000000000000000000000000000000000000000000000000000815260040160405180910390fd5b7f000000000000000000000000000000000000000000000000000000000000000073ffffffffffffffffffffffffffffffffffffffff16639b1c385e6040518060c001604052807f000000000000000000000000000000000000000000000000000000000000000081526020017f00000000000000000000000000000000000000000000000000000000000000008152602001600361ffff1681526020017f000000000000000000000000000000000000000000000000000000000000000063ffffffff168152602001600163ffffffff168152602001611372604051806020016040528060001515815250611e1d565b8152506040518263ffffffff1660e01b815260040161139191906135c9565b6020604051808303816000875af11580156113b0573d6000803e3d6000fd5b505050506040513d601f19601f820116820180604052508101906113d49190613600565b905033600a600083815260200190815260200160002060006101000a81548173ffffffffffffffffffffffffffffffffffffffff021916908373ffffffffffffffffffffffffffffffffffffffff1602179055503373ffffffffffffffffffffffffffffffffffffffff16817ff873236e6cc0ecc5be1a9a35c95ee5b8d1ac4cc7bfef0cc5060391d6cc98e26b60405160405180910390a390565b61147a84848461092a565b61148684848484611eb5565b50505050565b606061149782611768565b5060006009600084815260200190815260200160002080546114b890613256565b80601f01602080910402602001604051908101604052809291908181526020018280546114e490613256565b80156115315780601f1061150657610100808354040283529160200191611531565b820191906000526020600020905b81548152906001019060200180831161151457829003601f168201915b50505050509050600061154261206c565b9050600081510361155757819250505061159a565b60008251111561158c578082604051602001611574929190613669565b6040516020818303038152906040529250505061159a565b61159584612083565b925050505b919050565b60007f0000000000000000000000000000000000000000000000000000000000000000905090565b6000600860008473ffffffffffffffffffffffffffffffffffffffff1673ffffffffffffffffffffffffffffffffffffffff16815260200190815260200160002060008373ffffffffffffffffffffffffffffffffffffffff1673ffffffffffffffffffffffffffffffffffffffff16815260200190815260200160002060009054906101000a900460ff16905092915050565b6000600e60009054906101000a900460ff16905090565b61167a611c1e565b611683816120ec565b50565b60007f80ac58cd000000000000000000000000000000000000000000000000000000007bffffffffffffffffffffffffffffffffffffffffffffffffffffffff1916827bffffffffffffffffffffffffffffffffffffffffffffffffffffffff1916148061175157507f5b5e139f000000000000000000000000000000000000000000000000000000007bffffffffffffffffffffffffffffffffffffffffffffffffffffffff1916827bffffffffffffffffffffffffffffffffffffffffffffffffffffffff1916145b80611761575061176082612218565b5b9050919050565b60008061177483612282565b9050600073ffffffffffffffffffffffffffffffffffffffff168173ffffffffffffffffffffffffffffffffffffffff16036117e757826040517f7e2732890000000000000000000000000000000000000000000000000000000081526004016117de9190612c96565b60405180910390fd5b80915050919050565b60006007600083815260200190815260200160002060009054906101000a900473ffffffffffffffffffffffffffffffffffffffff169050919050565b600033905090565b61184283838360016122bf565b505050565b6000600a600085815260200190815260200160002060009054906101000a900473ffffffffffffffffffffffffffffffffffffffff1690506000600b549050600060648585600081811061189e5761189d6132e7565b5b905060200201356118af91906136bc565b905060006118bc82611167565b90506001600b60008282546118d19190613462565b925050819055506118e28484612484565b6119a483600c8360028111156118fb576118fa612fa2565b5b8154811061190c5761190b6132e7565b5b90600052602060002001805461192190613256565b80601f016020809104026020016040519081016040528092919081815260200182805461194d90613256565b801561199a5780601f1061196f5761010080835404028352916020019161199a565b820191906000526020600020905b81548152906001019060200180831161197d57829003601f168201915b50505050506124a2565b8373ffffffffffffffffffffffffffffffffffffffff168160028111156119ce576119cd612fa2565b5b847f826d84de86b9d47351ad75c90b9a8b7211e761e448ccd64623fc26341dd0b8dc60405160405180910390a450505050505050565b600080611a1084612282565b9050600073ffffffffffffffffffffffffffffffffffffffff168373ffffffffffffffffffffffffffffffffffffffff1614611a5257611a518184866124fe565b5b600073ffffffffffffffffffffffffffffffffffffffff168173ffffffffffffffffffffffffffffffffffffffff1614611ae357611a946000856000806122bf565b6001600660008373ffffffffffffffffffffffffffffffffffffffff1673ffffffffffffffffffffffffffffffffffffffff168152602001908152602001600020600082825403925050819055505b600073ffffffffffffffffffffffffffffffffffffffff168573ffffffffffffffffffffffffffffffffffffffff1614611b66576001600660008773ffffffffffffffffffffffffffffffffffffffff1673ffffffffffffffffffffffffffffffffffffffff168152602001908152602001600020600082825401925050819055505b846005600086815260200190815260200160002060006101000a81548173ffffffffffffffffffffffffffffffffffffffff021916908373ffffffffffffffffffffffffffffffffffffffff160217905550838573ffffffffffffffffffffffffffffffffffffffff168273ffffffffffffffffffffffffffffffffffffffff167fddf252ad1be2c89b69c2b068fc378daa952ba7f163c4a11628f55a4df523b3ef60405160405180910390a4809150509392505050565b60008054906101000a900473ffffffffffffffffffffffffffffffffffffffff1673ffffffffffffffffffffffffffffffffffffffff163373ffffffffffffffffffffffffffffffffffffffff1614611cac576040517f08c379a0000000000000000000000000000000000000000000000000000000008152600401611ca390613739565b60405180910390fd5b565b600073ffffffffffffffffffffffffffffffffffffffff168273ffffffffffffffffffffffffffffffffffffffff1603611d1f57816040517f5b08ba18000000000000000000000000000000000000000000000000000000008152600401611d169190612c00565b60405180910390fd5b80600860008573ffffffffffffffffffffffffffffffffffffffff1673ffffffffffffffffffffffffffffffffffffffff16815260200190815260200160002060008473ffffffffffffffffffffffffffffffffffffffff1673ffffffffffffffffffffffffffffffffffffffff16815260200190815260200160002060006101000a81548160ff0219169083151502179055508173ffffffffffffffffffffffffffffffffffffffff168373ffffffffffffffffffffffffffffffffffffffff167f17307eab39ab6107e8899845ad3d59bd9653f200f220920489ca2b5937696c3183604051611e109190612a8f565b60405180910390a3505050565b60607f92fd13387c7fe7befbc38d303d6468778fb9731bc4583f17d92989c6fcfdeaaa82604051602401611e519190613784565b604051602081830303815290604052907bffffffffffffffffffffffffffffffffffffffffffffffffffffffff19166020820180517bffffffffffffffffffffffffffffffffffffffffffffffffffffffff83818316178352505050509050919050565b60008373ffffffffffffffffffffffffffffffffffffffff163b1115612066578273ffffffffffffffffffffffffffffffffffffffff1663150b7a02611ef961182d565b8685856040518563ffffffff1660e01b8152600401611f1b94939291906137e9565b6020604051808303816000875af1925050508015611f5757506040513d601f19601f82011682018060405250810190611f54919061384a565b60015b611fdb573d8060008114611f87576040519150601f19603f3d011682016040523d82523d6000602084013e611f8c565b606091505b506000815103611fd357836040517f64a0ae92000000000000000000000000000000000000000000000000000000008152600401611fca9190612c00565b60405180910390fd5b805181602001fd5b63150b7a0260e01b7bffffffffffffffffffffffffffffffffffffffffffffffffffffffff1916817bffffffffffffffffffffffffffffffffffffffffffffffffffffffff19161461206457836040517f64a0ae9200000000000000000000000000000000000000000000000000000000815260040161205b9190612c00565b60405180910390fd5b505b50505050565b606060405180602001604052806000815250905090565b606061208e82611768565b50600061209961206c565b905060008151116120b957604051806020016040528060008152506120e4565b806120c3846125c2565b6040516020016120d4929190613669565b6040516020818303038152906040525b915050919050565b3373ffffffffffffffffffffffffffffffffffffffff168173ffffffffffffffffffffffffffffffffffffffff160361215a576040517f08c379a0000000000000000000000000000000000000000000000000000000008152600401612151906138c3565b60405180910390fd5b80600160006101000a81548173ffffffffffffffffffffffffffffffffffffffff021916908373ffffffffffffffffffffffffffffffffffffffff1602179055508073ffffffffffffffffffffffffffffffffffffffff1660008054906101000a900473ffffffffffffffffffffffffffffffffffffffff1673ffffffffffffffffffffffffffffffffffffffff167fed8889f560326eb138920d842192f0eb3dd22b4f139c87a2c57538e05bae127860405160405180910390a350565b60007f01ffc9a7000000000000000000000000000000000000000000000000000000007bffffffffffffffffffffffffffffffffffffffffffffffffffffffff1916827bffffffffffffffffffffffffffffffffffffffffffffffffffffffff1916149050919050565b60006005600083815260200190815260200160002060009054906101000a900473ffffffffffffffffffffffffffffffffffffffff169050919050565b80806122f85750600073ffffffffffffffffffffffffffffffffffffffff168273ffffffffffffffffffffffffffffffffffffffff1614155b1561242c57600061230884611768565b9050600073ffffffffffffffffffffffffffffffffffffffff168373ffffffffffffffffffffffffffffffffffffffff161415801561237357508273ffffffffffffffffffffffffffffffffffffffff168173ffffffffffffffffffffffffffffffffffffffff1614155b8015612386575061238481846115c7565b155b156123c857826040517fa9fbf51f0000000000000000000000000000000000000000000000000000000081526004016123bf9190612c00565b60405180910390fd5b811561242a57838573ffffffffffffffffffffffffffffffffffffffff168273ffffffffffffffffffffffffffffffffffffffff167f8c5be1e5ebec7d5bd14f71427d1e84f3dd0314c0f7b2291e5b200ac8c7c3b92560405160405180910390a45b505b836007600085815260200190815260200160002060006101000a81548173ffffffffffffffffffffffffffffffffffffffff021916908373ffffffffffffffffffffffffffffffffffffffff16021790555050505050565b61249e828260405180602001604052806000815250612690565b5050565b806009600084815260200190815260200160002090816124c29190613a85565b507ff8e1a15aba9398e019f0b49df1a4fde98ee17ae345cb5f6b5e2c27f5033e8ce7826040516124f29190612c96565b60405180910390a15050565b6125098383836126ac565b6125bd57600073ffffffffffffffffffffffffffffffffffffffff168373ffffffffffffffffffffffffffffffffffffffff160361257e57806040517f7e2732890000000000000000000000000000000000000000000000000000000081526004016125759190612c96565b60405180910390fd5b81816040517f177e802f0000000000000000000000000000000000000000000000000000000081526004016125b4929190613b57565b60405180910390fd5b505050565b6060600060016125d18461276d565b01905060008167ffffffffffffffff8111156125f0576125ef613039565b5b6040519080825280601f01601f1916602001820160405280156126225781602001600182028036833780820191505090505b509050600082602001820190505b600115612685578080600190039150507f3031323334353637383961626364656600000000000000000000000000000000600a86061a8153600a85816126795761267861368d565b5b04945060008503612630575b819350505050919050565b61269a83836128c0565b6126a76000848484611eb5565b505050565b60008073ffffffffffffffffffffffffffffffffffffffff168373ffffffffffffffffffffffffffffffffffffffff161415801561276457508273ffffffffffffffffffffffffffffffffffffffff168473ffffffffffffffffffffffffffffffffffffffff161480612725575061272484846115c7565b5b8061276357508273ffffffffffffffffffffffffffffffffffffffff1661274b836117f0565b73ffffffffffffffffffffffffffffffffffffffff16145b5b90509392505050565b600080600090507a184f03e93ff9f4daa797ed6e38ed64bf6a1f01000000000000000083106127cb577a184f03e93ff9f4daa797ed6e38ed64bf6a1f01000000000000000083816127c1576127c061368d565b5b0492506040810190505b6d04ee2d6d415b85acef81000000008310612808576d04ee2d6d415b85acef810000000083816127fe576127fd61368d565b5b0492506020810190505b662386f26fc10000831061283757662386f26fc10000838161282d5761282c61368d565b5b0492506010810190505b6305f5e1008310612860576305f5e10083816128565761285561368d565b5b0492506008810190505b612710831061288557612710838161287b5761287a61368d565b5b0492506004810190505b606483106128a8576064838161289e5761289d61368d565b5b0492506002810190505b600a83106128b7576001810190505b80915050919050565b600073ffffffffffffffffffffffffffffffffffffffff168273ffffffffffffffffffffffffffffffffffffffff16036129325760006040517f64a0ae920000000000000000000000000000000000000000000000000000000081526004016129299190612c00565b60405180910390fd5b600061294083836000611a04565b9050600073ffffffffffffffffffffffffffffffffffffffff168173ffffffffffffffffffffffffffffffffffffffff16146129b45760006040517f73c6ac6e0000000000000000000000000000000000000000000000000000000081526004016129ab9190612c00565b60405180910390fd5b505050565b6040518060600160405280600390602082028036833780820191505090505090565b6000604051905090565b600080fd5b600080fd5b60007fffffffff0000000000000000000000000000000000000000000000000000000082169050919050565b612a24816129ef565b8114612a2f57600080fd5b50565b600081359050612a4181612a1b565b92915050565b600060208284031215612a5d57612a5c6129e5565b5b6000612a6b84828501612a32565b91505092915050565b60008115159050919050565b612a8981612a74565b82525050565b6000602082019050612aa46000830184612a80565b92915050565b600081519050919050565b600082825260208201905092915050565b60005b83811015612ae4578082015181840152602081019050612ac9565b60008484015250505050565b6000601f19601f8301169050919050565b6000612b0c82612aaa565b612b168185612ab5565b9350612b26818560208601612ac6565b612b2f81612af0565b840191505092915050565b60006020820190508181036000830152612b548184612b01565b905092915050565b6000819050919050565b612b6f81612b5c565b8114612b7a57600080fd5b50565b600081359050612b8c81612b66565b92915050565b600060208284031215612ba857612ba76129e5565b5b6000612bb684828501612b7d565b91505092915050565b600073ffffffffffffffffffffffffffffffffffffffff82169050919050565b6000612bea82612bbf565b9050919050565b612bfa81612bdf565b82525050565b6000602082019050612c156000830184612bf1565b92915050565b612c2481612bdf565b8114612c2f57600080fd5b50565b600081359050612c4181612c1b565b92915050565b60008060408385031215612c5e57612c5d6129e5565b5b6000612c6c85828601612c32565b9250506020612c7d85828601612b7d565b9150509250929050565b612c9081612b5c565b82525050565b6000602082019050612cab6000830184612c87565b92915050565b600080fd5b600080fd5b600080fd5b60008083601f840112612cd657612cd5612cb1565b5b8235905067ffffffffffffffff811115612cf357612cf2612cb6565b5b602083019150836020820283011115612d0f57612d0e612cbb565b5b9250929050565b600080600060408486031215612d2f57612d2e6129e5565b5b6000612d3d86828701612b7d565b935050602084013567ffffffffffffffff811115612d5e57612d5d6129ea565b5b612d6a86828701612cc0565b92509250509250925092565b600080600060608486031215612d8f57612d8e6129e5565b5b6000612d9d86828701612c32565b9350506020612dae86828701612c32565b9250506040612dbf86828701612b7d565b9150509250925092565b600060039050919050565b600081905092915050565b6000819050919050565b612df281612b5c565b82525050565b6000612e048383612de9565b60208301905092915050565b6000602082019050919050565b612e2681612dc9565b612e308184612dd4565b9250612e3b82612ddf565b8060005b83811015612e6c578151612e538782612df8565b9650612e5e83612e10565b925050600181019050612e3f565b505050505050565b6000606082019050612e896000830184612e1d565b92915050565b600060208284031215612ea557612ea46129e5565b5b6000612eb384828501612c32565b91505092915050565b6000819050919050565b6000612ee1612edc612ed784612bbf565b612ebc565b612bbf565b9050919050565b6000612ef382612ec6565b9050919050565b6000612f0582612ee8565b9050919050565b612f1581612efa565b82525050565b6000602082019050612f306000830184612f0c565b92915050565b612f3f81612a74565b8114612f4a57600080fd5b50565b600081359050612f5c81612f36565b92915050565b60008060408385031215612f7957612f786129e5565b5b6000612f8785828601612c32565b9250506020612f9885828601612f4d565b9150509250929050565b7f4e487b7100000000000000000000000000000000000000000000000000000000600052602160045260246000fd5b60038110612fe257612fe1612fa2565b5b50565b6000819050612ff382612fd1565b919050565b600061300382612fe5565b9050919050565b61301381612ff8565b82525050565b600060208201905061302e600083018461300a565b92915050565b600080fd5b7f4e487b7100000000000000000000000000000000000000000000000000000000600052604160045260246000fd5b61307182612af0565b810181811067ffffffffffffffff821117156130905761308f613039565b5b80604052505050565b60006130a36129db565b90506130af8282613068565b919050565b600067ffffffffffffffff8211156130cf576130ce613039565b5b6130d882612af0565b9050602081019050919050565b82818337600083830152505050565b6000613107613102846130b4565b613099565b90508281526020810184848401111561312357613122613034565b5b61312e8482856130e5565b509392505050565b600082601f83011261314b5761314a612cb1565b5b813561315b8482602086016130f4565b91505092915050565b6000806000806080858703121561317e5761317d6129e5565b5b600061318c87828801612c32565b945050602061319d87828801612c32565b93505060406131ae87828801612b7d565b925050606085013567ffffffffffffffff8111156131cf576131ce6129ea565b5b6131db87828801613136565b91505092959194509250565b600080604083850312156131fe576131fd6129e5565b5b600061320c85828601612c32565b925050602061321d85828601612c32565b9150509250929050565b7f4e487b7100000000000000000000000000000000000000000000000000000000600052602260045260246000fd5b6000600282049050600182168061326e57607f821691505b60208210810361328157613280613227565b5b50919050565b600060408201905061329c6000830185612bf1565b6132a96020830184612bf1565b9392505050565b60006060820190506132c56000830186612bf1565b6132d26020830185612c87565b6132df6040830184612bf1565b949350505050565b7f4e487b7100000000000000000000000000000000000000000000000000000000600052603260045260246000fd5b600081905092915050565b50565b6000613331600083613316565b915061333c82613321565b600082019050919050565b600061335282613324565b9150819050919050565b7f4e487b7100000000000000000000000000000000000000000000000000000000600052601160045260246000fd5b600061339682612b5c565b91506133a183612b5c565b92508282039050818111156133b9576133b861335c565b5b92915050565b7f4d7573742062652070726f706f736564206f776e657200000000000000000000600082015250565b60006133f5601683612ab5565b9150613400826133bf565b602082019050919050565b60006020820190508181036000830152613424816133e8565b9050919050565b60006060820190506134406000830186612bf1565b61344d6020830185612bf1565b61345a6040830184612bf1565b949350505050565b600061346d82612b5c565b915061347883612b5c565b92508282019050808211156134905761348f61335c565b5b92915050565b6000819050919050565b6134a981613496565b82525050565b600061ffff82169050919050565b6134c6816134af565b82525050565b600063ffffffff82169050919050565b6134e5816134cc565b82525050565b600081519050919050565b600082825260208201905092915050565b6000613512826134eb565b61351c81856134f6565b935061352c818560208601612ac6565b61353581612af0565b840191505092915050565b600060c08301600083015161355860008601826134a0565b50602083015161356b6020860182612de9565b50604083015161357e60408601826134bd565b50606083015161359160608601826134dc565b5060808301516135a460808601826134dc565b5060a083015184820360a08601526135bc8282613507565b9150508091505092915050565b600060208201905081810360008301526135e38184613540565b905092915050565b6000815190506135fa81612b66565b92915050565b600060208284031215613616576136156129e5565b5b6000613624848285016135eb565b91505092915050565b600081905092915050565b600061364382612aaa565b61364d818561362d565b935061365d818560208601612ac6565b80840191505092915050565b60006136758285613638565b91506136818284613638565b91508190509392505050565b7f4e487b7100000000000000000000000000000000000000000000000000000000600052601260045260246000fd5b60006136c782612b5c565b91506136d283612b5c565b9250826136e2576136e161368d565b5b828206905092915050565b7f4f6e6c792063616c6c61626c65206279206f776e657200000000000000000000600082015250565b6000613723601683612ab5565b915061372e826136ed565b602082019050919050565b6000602082019050818103600083015261375281613716565b9050919050565b61376281612a74565b82525050565b60208201600082015161377e6000850182613759565b50505050565b60006020820190506137996000830184613768565b92915050565b600082825260208201905092915050565b60006137bb826134eb565b6137c5818561379f565b93506137d5818560208601612ac6565b6137de81612af0565b840191505092915050565b60006080820190506137fe6000830187612bf1565b61380b6020830186612bf1565b6138186040830185612c87565b818103606083015261382a81846137b0565b905095945050505050565b60008151905061384481612a1b565b92915050565b6000602082840312156138605761385f6129e5565b5b600061386e84828501613835565b91505092915050565b7f43616e6e6f74207472616e7366657220746f2073656c66000000000000000000600082015250565b60006138ad601783612ab5565b91506138b882613877565b602082019050919050565b600060208201905081810360008301526138dc816138a0565b9050919050565b60008190508160005260206000209050919050565b60006020601f8301049050919050565b600082821b905092915050565b6000600883026139457fffffffffffffffffffffffffffffffffffffffffffffffffffffffffffffffff82613908565b61394f8683613908565b95508019841693508086168417925050509392505050565b600061398261397d61397884612b5c565b612ebc565b612b5c565b9050919050565b6000819050919050565b61399c83613967565b6139b06139a882613989565b848454613915565b825550505050565b600090565b6139c56139b8565b6139d0818484613993565b505050565b5b818110156139f4576139e96000826139bd565b6001810190506139d6565b5050565b601f821115613a3957613a0a816138e3565b613a13846138f8565b81016020851015613a22578190505b613a36613a2e856138f8565b8301826139d5565b50505b505050565b600082821c905092915050565b6000613a5c60001984600802613a3e565b1980831691505092915050565b6000613a758383613a4b565b9150826002028217905092915050565b613a8e82612aaa565b67ffffffffffffffff811115613aa757613aa6613039565b5b613ab18254613256565b613abc8282856139f8565b600060209050601f831160018114613aef5760008415613add578287015190505b613ae78582613a69565b865550613b4f565b601f198416613afd866138e3565b60005b82811015613b2557848901518255600182019150602085019450602081019050613b00565b86831015613b425784890151613b3e601f891682613a4b565b8355505b6001600288020188555050505b505050505050565b6000604082019050613b6c6000830185612bf1565b613b796020830184612c87565b939250505056fea26469706673582212201f08878eee0ce794f17a16ad6efb2c5cf9db75476082912f4b5ff0f85e1584be64736f6c63430008180033",
  "devdoc": {
    "errors": {
      "ERC721IncorrectOwner(address,uint256,address)": [
        {
          "details": "Indicates an error related to the ownership over a particular token. Used in transfers.",
          "params": {
            "owner": "Address of the current owner of a token.",
            "sender": "Address whose tokens are being transferred.",
            "tokenId": "Identifier number of a token."
          }
        }
      ],
      "ERC721InsufficientApproval(address,uint256)": [
        {
          "details": "Indicates a failure with the `operator`s approval. Used in transfers.",
          "params": {
            "operator": "Address that may be allowed to operate on tokens without being their owner.",
            "tokenId": "Identifier number of a token."
          }
        }
      ],
      "ERC721InvalidApprover(address)": [
        {
          "details": "Indicates a failure with the `approver` of a token to be approved. Used in approvals.",
          "params": {
            "approver": "Address initiating an approval operation."
          }
        }
      ],
      "ERC721InvalidOperator(address)": [
        {
          "details": "Indicates a failure with the `operator` to be approved. Used in approvals.",
          "params": {
            "operator": "Address that may be allowed to operate on tokens without being their owner."
          }
        }
      ],
      "ERC721InvalidOwner(address)": [
        {
          "details": "Indicates that an address can't be an owner. For example, `address(0)` is a forbidden owner in EIP-20. Used in balance queries.",
          "params": {
            "owner": "Address of the current owner of a token."
          }
        }
      ],
      "ERC721InvalidReceiver(address)": [
        {
          "details": "Indicates a failure with the token `receiver`. Used in transfers.",
          "params": {
            "receiver": "Address to which tokens are being transferred."
          }
        }
      ],
      "ERC721InvalidSender(address)": [
        {
          "details": "Indicates a failure with the token `sender`. Used in transfers.",
          "params": {
            "sender": "Address whose tokens are being transferred."
          }
        }
      ],
      "ERC721NonexistentToken(uint256)": [
        {
          "details": "Indicates a `tokenId` whose `owner` is the zero address.",
          "params": {
            "tokenId": "Identifier number of a token."
          }
        }
      ]
    },
    "events": {
      "Approval(address,address,uint256)": {
        "details": "Emitted when `owner` enables `approved` to manage the `tokenId` token."
      },
      "ApprovalForAll(address,address,bool)": {
        "details": "Emitted when `owner` enables or disables (`approved`) `operator` to manage all of its assets."
      },
      "BatchMetadataUpdate(uint256,uint256)": {
        "details": "This event emits when the metadata of a range of tokens is changed. So that the third-party platforms such as NFT market could timely update the images and related attributes of the NFTs."
      },
      "MetadataUpdate(uint256)": {
        "details": "This event emits when the metadata of a token is changed. So that the third-party platforms such as NFT market could timely update the images and related attributes of the NFT."
      },
      "Transfer(address,address,uint256)": {
        "details": "Emitted when `tokenId` token is transferred from `from` to `to`."
      }
    },
    "kind": "dev",
    "methods": {
      "approve(address,uint256)": {
        "details": "See {IERC721-approve}."
      },
      "balanceOf(address)": {
        "details": "See {IERC721-balanceOf}."
      },
      "getApproved(uint256)": {
        "details": "See {IERC721-getApproved}."
      },
      "isApprovedForAll(address,address)": {
        "details": "See {IERC721-isApprovedForAll}."
      },
      "name()": {
        "details": "See {IERC721Metadata-name}."
      },
      "ownerOf(uint256)": {
        "details": "See {IERC721-ownerOf}."
      },
      "safeTransferFrom(address,address,uint256)": {
        "details": "See {IERC721-safeTransferFrom}."
      },
      "safeTransferFrom(address,address,uint256,bytes)": {
        "details": "See {IERC721-safeTransferFrom}."
      },
      "setApprovalForAll(address,bool)": {
        "details": "See {IERC721-setApprovalForAll}."
      },
      "supportsInterface(bytes4)": {
        "details": "See {IERC165-supportsInterface}"
      },
      "symbol()": {
        "details": "See {IERC721Metadata-symbol}."
      },
      "tokenURI(uint256)": {
        "details": "See {IERC721Metadata-tokenURI}."
      },
      "transferFrom(address,address,uint256)": {
        "details": "See {IERC721-transferFrom}."
      }
    },
    "version": 1
  },
  "userdoc": {
    "kind": "user",
    "methods": {
      "acceptOwnership()": {
        "notice": "Allows an ownership transfer to be completed by the recipient."
      },
      "owner()": {
        "notice": "Get the current owner"
      },
      "setCoordinator(address)": {
        "notice": "Sets the VRF Coordinator addressThis method should only be callable by the coordinator or contract owner"
      },
      "transferOwnership(address)": {
        "notice": "Allows an owner to begin transferring ownership to a new address."
      }
    },
    "version": 1
  },
  "storageLayout": {
    "storage": [
      {
        "astId": 29,
        "contract": "contracts/RandomIpfsNft.sol:RandomIpfsNft",
        "label": "s_owner",
        "offset": 0,
        "slot": "0",
        "type": "t_address"
      },
      {
        "astId": 31,
        "contract": "contracts/RandomIpfsNft.sol:RandomIpfsNft",
        "label": "s_pendingOwner",
        "offset": 0,
        "slot": "1",
        "type": "t_address"
      },
      {
        "astId": 2577,
        "contract": "contracts/RandomIpfsNft.sol:RandomIpfsNft",
        "label": "s_vrfCoordinator",
        "offset": 0,
        "slot": "2",
        "type": "t_contract(IVRFCoordinatorV2Plus)2726"
      },
      {
        "astId": 3901,
        "contract": "contracts/RandomIpfsNft.sol:RandomIpfsNft",
        "label": "_name",
        "offset": 0,
        "slot": "3",
        "type": "t_string_storage"
      },
      {
        "astId": 3903,
        "contract": "contracts/RandomIpfsNft.sol:RandomIpfsNft",
        "label": "_symbol",
        "offset": 0,
        "slot": "4",
        "type": "t_string_storage"
      },
      {
        "astId": 3907,
        "contract": "contracts/RandomIpfsNft.sol:RandomIpfsNft",
        "label": "_owners",
        "offset": 0,
        "slot": "5",
        "type": "t_mapping(t_uint256,t_address)"
      },
      {
        "astId": 3911,
        "contract": "contracts/RandomIpfsNft.sol:RandomIpfsNft",
        "label": "_balances",
        "offset": 0,
        "slot": "6",
        "type": "t_mapping(t_address,t_uint256)"
      },
      {
        "astId": 3915,
        "contract": "contracts/RandomIpfsNft.sol:RandomIpfsNft",
        "label": "_tokenApprovals",
        "offset": 0,
        "slot": "7",
        "type": "t_mapping(t_uint256,t_address)"
      },
      {
        "astId": 3921,
        "contract": "contracts/RandomIpfsNft.sol:RandomIpfsNft",
        "label": "_operatorApprovals",
        "offset": 0,
        "slot": "8",
        "type": "t_mapping(t_address,t_mapping(t_address,t_bool))"
      },
      {
        "astId": 5040,
        "contract": "contracts/RandomIpfsNft.sol:RandomIpfsNft",
        "label": "_tokenURIs",
        "offset": 0,
        "slot": "9",
        "type": "t_mapping(t_uint256,t_string_storage)"
      },
      {
        "astId": 7067,
        "contract": "contracts/RandomIpfsNft.sol:RandomIpfsNft",
        "label": "s_requestIdToSender",
        "offset": 0,
        "slot": "10",
        "type": "t_mapping(t_uint256,t_address)"
      },
      {
        "astId": 7069,
        "contract": "contracts/RandomIpfsNft.sol:RandomIpfsNft",
        "label": "s_tokenCounter",
        "offset": 0,
        "slot": "11",
        "type": "t_uint256"
      },
      {
        "astId": 7075,
        "contract": "contracts/RandomIpfsNft.sol:RandomIpfsNft",
        "label": "s_dogTokenUris",
        "offset": 0,
        "slot": "12",
        "type": "t_array(t_string_storage)dyn_storage"
      },
      {
        "astId": 7077,
        "contract": "contracts/RandomIpfsNft.sol:RandomIpfsNft",
        "label": "i_mintFee",
        "offset": 0,
        "slot": "13",
        "type": "t_uint256"
      },
      {
        "astId": 7079,
        "contract": "contracts/RandomIpfsNft.sol:RandomIpfsNft",
        "label": "s_initialized",
        "offset": 0,
        "slot": "14",
        "type": "t_bool"
      }
    ],
    "types": {
      "t_address": {
        "encoding": "inplace",
        "label": "address",
        "numberOfBytes": "20"
      },
      "t_array(t_string_storage)dyn_storage": {
        "base": "t_string_storage",
        "encoding": "dynamic_array",
        "label": "string[]",
        "numberOfBytes": "32"
      },
      "t_bool": {
        "encoding": "inplace",
        "label": "bool",
        "numberOfBytes": "1"
      },
      "t_contract(IVRFCoordinatorV2Plus)2726": {
        "encoding": "inplace",
        "label": "contract IVRFCoordinatorV2Plus",
        "numberOfBytes": "20"
      },
      "t_mapping(t_address,t_bool)": {
        "encoding": "mapping",
        "key": "t_address",
        "label": "mapping(address => bool)",
        "numberOfBytes": "32",
        "value": "t_bool"
      },
      "t_mapping(t_address,t_mapping(t_address,t_bool))": {
        "encoding": "mapping",
        "key": "t_address",
        "label": "mapping(address => mapping(address => bool))",
        "numberOfBytes": "32",
        "value": "t_mapping(t_address,t_bool)"
      },
      "t_mapping(t_address,t_uint256)": {
        "encoding": "mapping",
        "key": "t_address",
        "label": "mapping(address => uint256)",
        "numberOfBytes": "32",
        "value": "t_uint256"
      },
      "t_mapping(t_uint256,t_address)": {
        "encoding": "mapping",
        "key": "t_uint256",
        "label": "mapping(uint256 => address)",
        "numberOfBytes": "32",
        "value": "t_address"
      },
      "t_mapping(t_uint256,t_string_storage)": {
        "encoding": "mapping",
        "key": "t_uint256",
        "label": "mapping(uint256 => string)",
        "numberOfBytes": "32",
        "value": "t_string_storage"
      },
      "t_string_storage": {
        "encoding": "bytes",
        "label": "string",
        "numberOfBytes": "32"
      },
      "t_uint256": {
        "encoding": "inplace",
        "label": "uint256",
        "numberOfBytes": "32"
      }
    }
  }
}